:020000040800F2
:10000000000002205D3D0008313A0008333A000844
:10001000353A0008373A0008393A00080000000075
:100020000000000000000000000000003B3A000853
:100030003D3A0008000000003F3A0008413A00083D
:10004000AD3D0008AD3D0008AD3D0008AD3D0008E8
:10005000AD3D0008AD3D0008AD3D0008AD3D0008D8
:10006000AD3D0008AD3D0008AD3D0008AD3D0008C8
:10007000AD3D0008AD3D0008AD3D0008AD3D0008B8
:10008000AD3D0008AD3D0008AD3D0008000000009A
:10009000000000000000000000000000AD3D00086E
:1000A000AD3D0008AD3D0008AD3D0008AD3D000888
:1000B000AD3D0008AD3D0008AD3D0008AD3D000878
:1000C000AD3D0008AD3D0008AD3D0008AD3D000868
:1000D000AD3D0008AD3D0008AD3D0008000000004A
:1000E000AD3D0008AD3D0008AD3D0008000000003A
:1000F000000000000000000000000000AD3D00080E
:1001000000000000AD3D0008AD3D0008AD3D000819
:1001100000000000000000000000000000000000DF
:10012000AD3D0008AD3D0008AD3D0008AD3D000807
:10013000AD3D0008000000000000000000000000CD
:10014000000000000000000000000000493A000824
:10015000AD3D0008AD3D0008AD3D0008AD3D0008D7
:10016000AD3D0008AD3D00080000000000000000AB
:10017000000000000000000000000000000000007F
:1001800000000000AD3D000800000000000000007D
:08019000AD3D0008AD3D000883
:1001980010B5054C237833B9044B13B10448AFF3B9
:1001A80000800123237010BD900000200000000093
:1001B800A83F000808B5034B1BB103490348AFF338
:1001C800008008BD0000000094000020A83F00083F
:1001D80053B94AB9002908BF00281CBF4FF0FF31A6
:1001E8004FF0FF3000F072B9ADF1080C6DE904CEA4
:1001F80000F006F8DDF804E0DDE9022304B07047FA
:100208002DE9F047089E04468846002B4BD18A42C8
:10021800154667D9B2FA82F24AB1C2F1200701FA4B
:1002280002F320FA07F7954047EA030894404FEA9B
:10023800154E230CB8FBFEF71FFA85FC0EFB17883A
:1002480043EA084307FB0CF1994209D9EB1807F177
:10025800FF3080F01B81994240F21881023F2B4405
:100268005B1AA4B2B3FBFEF00EFB103344EA03445E
:1002780000FB0CFCA44509D92C1900F1FF3380F0D0
:100288000781A44540F2048102382C4440EA074023
:10029800A4EB0C0400271EB1D4400023C6E9004398
:1002A8003946BDE8F0878B4209D9002E00F0EB8073
:1002B8000027C6E9000138463946BDE8F087B3FA99
:1002C80083F7002F47D18B4202D3824200F2FA8093
:1002D800841A61EB030301209846002EE0D0C6E99A
:1002E8000048DDE702B9FFDEB2FA82F2002A40F0E8
:1002F8008F80491B4FEA154E1FFA85F80127B1FB7D
:10030800FEFC230C0EFB1C1143EA014308FB0CF115
:10031800994207D9EB180CF1FF3002D2994200F24A
:10032800CD808446591AA3B2B1FBFEF00EFB10141F
:1003380043EA044408FB00F8A04507D92C1900F14A
:10034800FF3302D2A04500F2B6801846A4EB080499
:1003580040EA0C409FE7C7F1200CBB4022FA0CFE94
:100368004EEA030E01FA07F420FA0CF521FA0CF311
:100378004FEA1E482543B3FBF8F92C0C08FB193348
:100388001FFA8EFA44EA034309FB0AF49C4202FA74
:1003980007F200FA07F10BD91EEB030309F1FF304E
:1003A80080F087809C4240F28480A9F1020973445E
:1003B8001B1BADB2B3FBF8F008FB103345EA03444E
:1003C80000FB0AFAA24508D91EEB040400F1FF332A
:1003D8006BD2A24569D90238744440EA0940A0FBAF
:1003E8000289A4EB0A044C45C2464B4654D351D06B
:1003F800002E69D0B1EB0A0564EB030404FA0CFC87
:10040800FD40FC404CEA0505C6E90054002747E7D3
:10041800C2F1200320FA03F7954001FA02F021FA0D
:1004280003F34FEA154E3843010CB3FBFEF71FFAEE
:1004380085F80EFB173341EA034107FB08F38B42AB
:1004480004FA02F407D9691807F1FF3C2FD28B424E
:100458002DD9023F2944CB1A81B2B3FBFEF00EFB23
:10046800103341EA034100FB08F38B4207D96918AE
:1004780000F1FF3C17D28B4215D902382944C91A1A
:1004880040EA07473BE73746304609E70746E7E6CD
:100498001846FBE64145ABD2B8EB020A69EB0E02FF
:1004A80001381346A4E76046E9E7184695E767462A
:1004B800D1E781467CE702382C4447E7ACF1020CCF
:1004C8002B442FE7384608E73746E9E6704700BF70
:1004D80010B504460E4B18784FF47A73B3FBF0F35B
:1004E8000C4A1068B0FBF3F000F0AAF868B90F2CBA
:1004F80001D901200AE0002221464FF0FF3000F028
:100508005DF8034B5C60002000E0012010BD00BFD7
:10051800000000202800002008B50B4B1A6842F4A0
:1005280000721A601A6842F480621A601A6842F40B
:1005380080721A60032000F02FF80020FFF7C8FF30
:1005480003F056FA002008BD003C0240034A116837
:10055800034B1B780B441360704700BFC400002096
:1005680000000020014B1868704700BFC40000203D
:1005780038B50446FFF7F6FF0546B4F1FF3F02D051
:10058800044B1B781C44FFF7EDFF401BA042FAD335
:1005980038BD00BF00000020074AD36823F4E06399
:1005A8001B041B0C000200F4E060184340F0BF601D
:1005B80040F40030D060704700ED00E030B4174BD5
:1005C800DB68C3F30223C3F10704042C28BF042407
:1005D8001D1D062D18D9033B4FF0FF3505FA04F40D
:1005E80021EA0401994005FA03F322EA03031943B7
:1005F80000280BDB0901C9B200F1604000F5614039
:1006080080F8001330BC70470023E5E700F00F00C6
:100618000901C9B2024B1954F4E700BF00ED00E02C
:1006280014ED00E0002807DB00F01F024009012359
:100638009340024A42F82030704700BF00E100E0D2
:100648000138B0F1807F0AD2064B5860064AF02183
:1006580082F823100020986007221A607047012052
:10066800704700BF10E000E000ED00E000230F2B12
:1006780000F2C580F0B583B039E0042200E0002222
:10068800AA403A4302345E4D45F824205D4A146876
:10069800F24302EA04054F6817F4803F01D046EAA6
:1006A8000405584C2560646802EA04054F6817F48D
:1006B800003F01D046EA0405524C6560A46802EA8E
:1006C80004054F6817F4801F01D046EA04054D4C15
:1006D800A560E46822404D6815F4001F01D046EA81
:1006E8000402484CE26001330F2B00F2868001229D
:1006F8009A400C6804EA0206B242F4D14C68651EBE
:10070800012D03D9112C01D0122C12D185685F005C
:100718000324BC4025EA0405CC68BC402C43846013
:10072800456825EA02054C68C4F300129A402A433A
:100738004260C4685F000322BA40D24314408D6807
:10074800BD402543C5604C68022C01D0122C13D142
:10075800DD08083550F825E003F007044FEA840C5B
:100768000F2404FA0CF42EEA040E0C6904FA0CF4B3
:1007780044EA0E0440F82540046822404C6804F01E
:100788000304BC40224302604A6812F0805FAAD08A
:10079800002201921C4A546C44F480445464526C04
:1007A80002F480420192019A9C08A51C144A52F84E
:1007B800257003F0030295000F22AA4027EA0207DA
:1007C800124A90423FF45BAF02F5806290420ED02D
:1007D80002F5806290420CD002F5806290420AD005
:1007E80002F5806290423FF448AF072248E70122B1
:1007F80046E7022244E7032242E703B0F0BD704710
:1008080000380140003C014000380240000002402E
:1008180012B909048161704781617047F8B50668AB
:10082800346A04F00F07C4F34343C4F30A14022BD9
:100838002ED16CB307EB8702D3000344596C39B34C
:1008480005462246304601F08BFEBA003A44D300F2
:100858002B445A6C22445A64DA6C2244DA6406EB5C
:100868004713D3F810150B4A0A408AB1D3F800256C
:1008780022F0804242F00042C3F80025BB00D9199B
:10088800CA002A4492F8503083F0010382F85030AD
:10089800F8BD00BF0000F81FF0B585B09DF82850DE
:1008A8009DF82C60BDF8307090F8B842012C41D00A
:1008B800012480F8B8424FEA810C8C444FEACC04FA
:1008C80004444FF0000C84F83DC084F83830A4F894
:1008D800407084F8391084F83F6002F07F0C84F887
:1008E8003AC012F0800F1BD101EB810C4FEACC0407
:1008F80004444FF0000C84F83BC0044601EB810C23
:100908004FEACC00204480F83C50029701960095AD
:10091800206801F008FF002384F8B83205B0F0BD64
:1009280001EB810C4FEACC0404444FF0010C84F82D
:100938003BC0E2E70220F1E790F8B832012B0BD078
:1009480010B50446012380F8B832006801F074FF3E
:10095800002084F8B80210BD02207047002845D056
:10096800F0B58BB00646046890F8B932002B38D041
:10097800032386F8B932E36B13F4807F01D1002397
:100988003361306801F093FD344654F810CB6D465E
:100998000FCC0FC50FCC0FC594E8030085E8030002
:1009A800371D97E80E00604601F036FD01213068DA
:1009B80001F083FD344654F810CB6D460FCC0FC5BB
:1009C8000FCC0FC594E8030085E8030097E80E00F4
:1009D800604601F025FE012386F8B93200200BB0ED
:1009E800F0BD80F8B83203F095F8C1E701207047F0
:1009F800F8B59DF81870BDF820608D000D44EC0026
:100A0800044484F83B2084F83F306FB901EB81053A
:100A1800EC000444032584F84250032B00F296802E
:100A2800DFE803F00A8D2F5E01EB8105EC0004443A
:100A3800022584F84250F0E7012F40F08780002A11
:100A480040F0848036B901EB8102D30003440122CF
:100A580083F8512001EB8102D300034493F851300D
:100A68003BB901EB8102D3000344002283F8422002
:100A78006CE001EB8102D3000344022283F8422098
:100A880064E0B2B901EB8102D300034493F851301A
:100A98003BB901EB8102D3000344002283F84220D2
:100AA80054E001EB8102D3000344022283F8422080
:100AB8004CE001EB8102D300034493F850303BB97A
:100AC80001EB8102D3000344002283F842203DE079
:100AD80001EB8102D3000344022283F8422035E06F
:100AE800B2B901EB8102D300034493F851303BB90A
:100AF80001EB8102D3000344002283F8422025E061
:100B080001EB8102D3000344022283F842201DE056
:100B180001EB8102D300034493F850303BB901EB59
:100B28008102D3000344002283F842200EE001EB47
:100B38008102D3000344022283F8422006E001EB3D
:100B48008102D3000344002283F842208A0054180B
:100B5800E3000344079C5C649E64002483F85C40C3
:100B6800DC6483F8391083F85D401144CB0003F14D
:100B78003801027C0144006801F0D8FEF8BD30B5A8
:100B880083B005460468D4F840340193D4F840345F
:100B98000093009B23F02E030093019B13F0020F98
:100BA80007D0019B13F0010F28D1009B43F00203EB
:100BB8000093019B13F0080F13D0009B43F0080328
:100BC8000093019B13F0040F34D0AB69022B1CD0A7
:100BD800EB68012B29D0284602F0FDFF284602F0D9
:100BE800EDFF019B13F0200F03D0009B43F020037F
:100BF8000093009BC4F8403403B030BDA36923F0D0
:100C08000053A36102F0DAFFCFE7019B03F4C0238E
:100C1800B3F5802F04D00121286801F0BDFCDAE784
:100C28000221286801F0B8FCD5E74EF66022C4F826
:100C38000424D0E7284602F0D4FFD4F8403423F047
:100C48002E03C4F840342A68936943F00053936133
:100C5800C7E7F8B506460D46076807EB411707F5DD
:100C6800A064A36813F0040F3ED00423A360E368D4
:100C780043F00203E360A36813F4007F6AD1A3681A
:100C880013F0010F00F0878033694BB1AA002A44A2
:100C9800D30033449A6C2169C1F31201521ADA6401
:100CA800AA002A44D3003344012283F85D2000219E
:100CB8009965A26093F83F30002B57D0022B55D08E
:100CC800032B5DD1D7F8003543F00053C7F8003542
:100CD80005EB8502D3003344012283F85C202946C2
:100CE800304602F077FF4BE0A36813F0200F02D0E4
:100CF8002023A360BFE7A36813F0080F17D1A368E8
:100D080013F4806FB7D0E36843F00203E360006830
:100D180001F092FD1023A36005EB8502D300334454
:100D2800082283F85D204FF48063A360A3E7E3689B
:100D380043F00203E36001EB8102D3000344052280
:100D480083F85D201023A3600823A360006801F0E6
:100D580073FD90E7E36843F00203E36029463068D7
:100D680001F06AFD4FF40073A36013E0E36843F0F9
:100D78000203E3602946306801F05EFD1023A3609A
:100D8800AB005919CA00324492F8503083F001037D
:100D980082F85030F8BDA36813F0020F62D0E36800
:100DA80023F00203E36005EB8502D300334493F894
:100DB8005D30012B17D0052B29D0062B2FD0082BFF
:100DC8002DD0032B16D105EB8502D3003344022224
:100DD80083F85C20D7F8003523F0804343F00043C4
:100DE800C7F8003506E005EB8502D300334401223D
:100DF80083F85C200223A36005EB8502D30033440B
:100E080093F85C202946304602F0E4FEC2E705EB81
:100E18008502D3003344052283F85C20EAE7AA0060
:100E28002A44D30033449A6D01329A65032A11D9B2
:100E3800AA002A44D300334400229A65042283F886
:100E48005C20D7F8003523F0804343F00043C7F80F
:100E58000035CFE705EB8502D3003344022283F83F
:100E68005C20EEE7A36813F0800F19D1A36813F094
:100E7800100F8FD005EB8502D300334493F83F3031
:100E8800032B25D00BB1022B07D105EB8502D3002C
:100E9800334400229A6533694BB31023A36079E782
:100EA800E36843F00203E360AB005919CA00324417
:100EB800916D013191652B44DA003244062382F8A2
:100EC8005D302946306801F0B7FC8023A36061E7F4
:100ED80005EB8502D300334400229A65E36843F0AA
:100EE8000203E3602946306801F0A6FCD5E705EB6C
:100EF8008502D3003344032283F85D20E36843F07E
:100F08000203E3602946306801F096FCC5E7F8B5AE
:100F1800036803EB411303F5A064A26812F0040F01
:100F280024D10E460546A26812F0200F25D02023B2
:100F3800A36001EB8102D3001A46034493F83D30C5
:100F4800012B19D18B000244002182F83D10334453
:100F5800DA000244022382F85C30E36843F00203BB
:100F6800E3603146006801F067FC05E00423A360F4
:100F7800E36843F00203E360F8BDA26812F0400F93
:100F880034D1A26812F4007F4AD1A26812F0010F8E
:100F980051D1A26812F0080F62D1A26812F0100FA6
:100FA8006FD08A000A44D300034400229A650322C2
:100FB80083F85D2093F83D306BB901EB8102D300D3
:100FC800034493F83C3033B901EB8102D300034466
:100FD800012283F83D20E36843F00203E3603146D1
:100FE800286801F029FC1023A360C5E78B00591875
:100FF800CA000244042182F85D10012182F83D10E4
:101008003344DA00024400239365E36843F00203A3
:10101800E3603146006801F00FFC4023A360ABE7B2
:10102800E36843F00203E360006801F005FC4FF455
:101038000073A360A0E78F007A18D300034400224E
:101048009A65E36843F00203E360006801F0F4FB8B
:101058000123A360B919C800284480F85D308BE7E4
:101068000823A360E36843F00203E360006801F02B
:10107800E3FB06EB8601C8002844052380F85D30B1
:101088007AE7A26812F0800F39D1A26812F4806F53
:1010980046D1A26812F0020F3FF46EAFE26822F068
:1010A8000202E26001EB8101CA001146024492F893
:1010B8005D20012A48D0032A5AD0042A6CD0052A78
:1010C80072D0062A01D0082A59D1B1003144CA0089
:1010D8002A44916D0131916503296BD9282202FBBD
:1010E800065200219165042182F85C10D3F800258E
:1010F80022F0804242F00042C3F800253FE0E36856
:1011080043F00203E360006801F096FB06EB8601FA
:10111800CB002B44062283F85D208023A3602BE7B5
:10112800E36843F00203E360006801F085FB1023E5
:10113800A3604FF48063A36006EB8601CB002B44C9
:10114800082283F85D2017E70B460344012283F841
:101158005C2093F83F30023BDBB293420FD80B463A
:10116800034493F8512082F0010283F8512006E0ED
:1011780006EB8602D3000344022283F85C20022394
:10118800A36006EB8602D3002B4493F85C2031461B
:10119800284602F01FFDEFE606EB8602D300034463
:1011A800022283F85C20EAE7282303FB060383F87E
:1011B8005C20E4E7282202FB0652022182F85C1038
:1011C80094E7F8B504460568284601F0E1F90128D6
:1011D80000D0F8BD206801F0D7F90028F9D02068C0
:1011E80001F0D2F910F4001F03D023684FF4001265
:1011F8005A61206801F0C8F910F4801F03D02368F1
:101208004FF480125A61206801F0BEF910F0806F27
:1012180003D023684FF080625A61206801F0B4F966
:1012280010F0020F02D0236802225A61206801F0F0
:10123800ABF910F0005F25D1206801F0A5F910F096
:10124800807F31D1206801F09FF910F0080F2FD16D
:10125800206801F099F910F0007F30D1206801F082
:1012680093F910F0100FB4D02268936923F010039B
:1012780093612046FFF7D2FA2268936943F010037E
:101288009361A6E7D5F8403423F02E03C5F840341F
:10129800204602F099FC0121206801F07DF92368BD
:1012A8004FF000525A61C7E72046FFF768FCC9E7CC
:1012B800204602F07DFC236808225A61C8E72068AE
:1012C80001F0B5FA0746002604E0F1B22046FFF720
:1012D8001EFE0136A368B34212D906F00F0327FA9F
:1012E80003F313F0010FF4D005EB4613D3F80035E0
:1012F80013F4004FE9D0F1B22046FFF7AAFCE8E763
:1013080023684FF000725A61A8E738B590F8B832F0
:10131800012B0ED00446012580F8B852006801F070
:10132800C0F82946206801F057F9002084F8B8026F
:1013380038BD0220FCE790F8B832012B0BD010B56D
:101348000446012380F8B832006801F09BFB0020B6
:1013580084F8B80210BD0220704701EB8101CB0070
:10136800184490F85C00704701EB8101CB001844E9
:10137800C06C704708B5006801F0D0F908BD0000DE
:10138800002800F0C880F8B5044690F83D30002BDE
:1013980075D0242384F83D302268136823F00103B4
:1013A80013602268136843F40043136022681368CB
:1013B80023F40043136000F0CDFE6268584B9A4254
:1013C80062D8584B98428CBF00230123002B40F071
:1013D800A480554BA3FB00239B0C21684A6822F08C
:1013E8003F021A434A6025682A6A22F03F0266686B
:1013F8004B498E424ED8013313432B622568E96965
:1014080021F44F4121F0FF016368454A93424BD8CC
:1014180001385B00B0FBF3F30133C3F30B03042B78
:1014280038BF04230B43EB6121680B6823F0C0032A
:10143800E269206A024313430B6021688B6823F436
:10144800034323F0FF032269E068024313438B60E0
:101458002168CB6823F0FF036269A0690243134344
:10146800CB602268136843F00103136000202064F6
:10147800202384F83D30206384F83E00F8BD80F8CE
:101488003C3002F08FF884E7284B98428CBF002349
:1014980001239BE74FF4967101FB03F32449A1FB59
:1014A80003139B090133A7E7A268BAB9461E03EBE9
:1014B8004307B6FBF7F60136C6F30B06B6FA86F60F
:1014C800760936BBC2B9013803EB4303B0FBF3F32B
:1014D8000133C3F30B0242F40043A3E7461E03EBB8
:1014E800830707EB8707B6FBF7F60136C6F30B064B
:1014F800B6FA86F67609E4E7013803EB830303EBD3
:101508008303B0FBF3F20132C2F30B0242F440430F
:1015180088E7012386E7012070470120AEE700BF76
:10152800A08601007F841E0083DE1B43FF083D0068
:10153800D34D6210002800F0BF8070B5044690F8C3
:101548004130002B51D0022284F841202168CB6918
:1015580023F47B6323F00F03CB6123681A6263696A
:10156800934263D0E368002B46D11025A368202B53
:1015780000D86D00012000F0B5FE2369B3F5007FA7
:101588003CD0B0FBF5F000EB800043006269B3FB90
:10159800F2F30533494AA2FB0323DB0803F00102F7
:1015A8009B1A5B081202991EFD2941D821690A433A
:1015B800216813430B622168CB6923F47B6323F012
:1015C8000F036268A0680243E0680243A06902430F
:1015D800134343F40063CB61236A012B2ED0002010
:1015E8006064012384F8413070BD80F84030344B8A
:1015F800436302F04BF8A6E72025B7E7E36853B149
:10160800AD00B0FBF5F000EB800043006269B3FB6E
:10161800F2F30533BEE7ED00B0FBF5F000EB800018
:1016280043006269B3FBF2F30533B3E70022BAE77C
:10163800636C43F0100363640120D5E7214B6363B7
:101648002268214B9A421FD04FF04022D36923F4DD
:101658007B6323F00F03D36122681B4B9A4215D09A
:101668004FF0402302221A622268174B9A4210D088
:101678004FF04021CA6992B26368B3F5007F0AD07F
:10168800C3B94FF4807608E0104ADFE7A3F580631A
:10169800E8E70E49EEE74FF48076A068E568238B0B
:1016A8002B439BB203439BB23343134343F400637E
:1016B800CB6194E70026F0E701207047CDCCCCCC75
:1016C8004B17000855190008003800400034004046
:1016D800704708B5426A03681288DA60436A0233C1
:1016E8004362438D013B9BB24385438D9BB203B15B
:1016F80008BD0268536823F0A0035360012380F8F3
:101708004130FFF7E5FFF3E7704708B50368DA688B
:10171800C36A1A80C36A0233C362438E013B9BB219
:101728004386438E9BB203B108BD0268536823F019
:1017380060035360012380F84130FFF7E5FFF3E7CA
:10174800704710B584B0044602689368039390F814
:101758004130DBB2042B06D094F84130DBB2032BC6
:101768002CD004B010BD039B13F0010F03D05368B5
:1017780013F0400F1FD1039B13F0400FECD02368E8
:101788005A6812F0200FE7D05A6822F060025A60B7
:10179800002301932368DA6801929B680193019BF7
:1017A800012384F84130636C43F0020363642046EC
:1017B800FFF7C6FFD0E7FFF7A8FFDCE7039B13F0AE
:1017C800020F04D023685B6813F0800F1DD1039BC0
:1017D80013F0080FC5D023685A6812F0200FC0D044
:1017E8005A6822F0A0025A600023029323689B687B
:1017F8000293029B012384F84130636C43F0040395
:1018080063642046FFF79CFFABE72046FFF761FFC4
:10181800DDE7704708B5436A9A1C426202681B8874
:10182800D360438D013B9BB24385438D9BB23BB94B
:101838000268536823F0A0035360438E9BB203B140
:1018480008BD012380F84130FFF7E3FFF8E7000007
:1018580008B50268144B9A421BD04FF04023DA684F
:10186800C36A991CC1621A80438E013B9BB24386AE
:10187800438E9BB263B902680B4B9A420CD04FF06F
:101888004022536823F060035360438D9BB22BB111
:1018980008BDA3F58063E2E7044AF2E7012380F874
:1018A8004130FFF7B6FFF3E700380040003400404E
:1018B80008B5436A9A1C42621A880168124B994219
:1018C80017D04FF04023DA60438D013B9BB243852C
:1018D800438D9BB263B902680B4B9A420CD04FF010
:1018E8004022536823F0A0035360438E9BB22BB170
:1018F80008BDA3F58063E6E7044AF2E7012380F810
:101908004130FFF786FFF3E700380040003400401D
:1019180008B50368DA68C36A991CC1621A80438EE5
:10192800013B9BB24386438E9BB23BB90268536826
:1019380023F060035360438D9BB203B108BD0123BC
:1019480080F84130FFF765FFF8E7000010B586B072
:10195800044603689A680592704A93426FD04FF024
:101968004022916804915B6803935368029363680B
:10197800B3F5007F01D0002B70D1059B13F0020F47
:1019880003D0039B13F0800F5CD1049B13F0010F6D
:1019980003D0029B13F0400F58D1049B13F0400F63
:1019A80024D0029B13F0200F20D022685B4B9A4270
:1019B80050D04FF04022536823F0600353602268F0
:1019C800536823F0A0035360002300932368DA6868
:1019D80000929B680093009B012384F84130636C5C
:1019E80043F0020363642046FFF7AAFE059B13F049
:1019F800080F22D0039B13F0200F1ED022685368D3
:101A080023F0A00353602268444B9A4224D04FF03D
:101A18004022536823F06003536000230193236836
:101A28009B680193019B012384F84130636C43F068
:101A3800040363642046FFF783FE06B010BDA2F5D9
:101A480080628EE72046FFF7E5FE9EE72046FFF717
:101A5800FFFEA2E7324AAEE7314ADAE7049B13F009
:101A6800020F03D0029B13F0800F4AD1059B13F09D
:101A7800010F03D0039B13F0400F46D1059B13F0D1
:101A8800400F1CD0039B13F0200F18D02268536816
:101A980023F0600353602268204B9A4239D04FF0FC
:101AA8004022536823F0A0035360012384F8413097
:101AB800636C43F0020363642046FFF741FE049B16
:101AC80013F0080FB9D0029B13F0200FB5D022688D
:101AD800124B9A421FD04FF04022536823F0A003C4
:101AE80053602268536823F060035360012384F82D
:101AF8004130636C43F0040363642046FFF720FE23
:101B08009BE72046FFF7D4FEB0E72046FFF700FF2B
:101B1800B4E7034AC5E7024ADFE700BF00380040E0
:101B280000340040002800F0E48170B582B004461B
:101B3800036813F0010F3BD0A74B9B6803F00C031D
:101B4800042B2CD0A44B9B6803F00C03082B21D04A
:101B58006368B3F5803F4FD0B3F5A02F52D09E4BAA
:101B68001A6822F480321A601A6822F480221A60F5
:101B78006368002B50D0FEF7F5FC0546964B1B68B2
:101B880013F4003F14D1FEF7EDFC401B6428F5D98F
:101B98000320B3E1904B5B6813F4800FD8D08E4BD1
:101BA8001B6813F4003F03D06368002B00F0A38187
:101BB800236813F0020F55D0874B9B6813F00C0F66
:101BC8003ED0854B9B6803F00C03082B33D0E368A9
:101BD800002B68D0814B01221A60FEF7C3FC054632
:101BE8007D4B1B6813F0020F54D1FEF7BBFC401B62
:101BF8000228F5D9032081E1774A136843F480333A
:101C08001360B5E7744B1A6842F480221A601A68A8
:101C180042F480321A60ABE7FEF7A4FC05466E4B2F
:101C28001B6813F4003FC3D0FEF79CFC401B6428DC
:101C3800F5D9032062E1684B5B6813F4800FC6D1C5
:101C4800654B1B6813F0020F04D0E368012B01D029
:101C5800012053E1604A136823F0F803216943EA3D
:101C6800C1031360236813F0080F40D0636963B39E
:101C78005B4B01221A60FEF775FC0546564B5B6FFD
:101C880013F0020F33D1FEF76DFC401B0228F5D983
:101C9800032033E1504A136823F0F803216943EA2B
:101CA800C1031360DEE74D4B00221A60FEF75AFCB1
:101CB8000546494B1B6813F0020FD3D0FEF752FCC0
:101CC800401B0228F5D9032018E1454B00221A6071
:101CD800FEF748FC0546404B5B6F13F0020F06D039
:101CE800FEF740FC401B0228F5D9032006E12368D3
:101CF80013F0040F79D0384B1B6C13F0805F33D18D
:101D080000230193344B1A6C42F080521A641B6C06
:101D180003F080530193019B0125324B1B6813F498
:101D2800807F23D0A368012B34D0052B38D02A4BD1
:101D38001A6F22F001021A671A6F22F004021A675A
:101D4800A368002B36D0FEF70DFC0646224B1B6F0E
:101D580013F0020F48D1FEF705FC801B41F28833CF
:101D68009842F3D90320C9E00025D6E71D4A136835
:101D780043F480731360FEF7F5FB0646194B1B68A6
:101D880013F4807FCED1FEF7EDFB801B0228F5D936
:101D98000320B3E0104A136F43F001031367CFE742
:101DA8000D4B1A6F42F004021A671A6F42F00102D3
:101DB8001A67C5E7FEF7D6FB0646074B1B6F13F0FD
:101DC800020F11D0FEF7CEFB801B41F288339842F8
:101DD800F3D9032092E000BF0038024000004742D8
:101DE800800E474200700040EDB9A369002B00F057
:101DF8008480454A926802F00C02082A51D0022BCE
:101E080017D0424B00221A60FEF7ACFB04463E4B4B
:101E18001B6813F0007F42D0FEF7A4FB001B0228CA
:101E2800F5D903206AE0384A136C23F08053136411
:101E3800DBE7364B00221A60FEF794FB0546324B6F
:101E48001B6813F0007F06D0FEF78CFB401B0228AE
:101E5800F5D9032052E0E369226A1343626A43EA30
:101E68008213A26A5208013A43EA0243E26A43EA49
:101E78000263254A5360254B01221A60FEF772FB64
:101E88000446214B1B6813F0007F06D1FEF76AFB5E
:101E9800001B0228F5D9032030E000202EE00020A6
:101EA8002CE0012B2CD0184B9B6803F48001E269CD
:101EB800914201D0012021E003F03F02216A8A42C9
:101EC80001D001201AE0616A47F6C0721A408A42BE
:101ED80001D0012012E003F44032A16A8A4201D005
:101EE80001200BE003F07063E26A93420AD00120FC
:101EF80004E001207047012000E0002002B070BD1E
:101F08000120FBE70020F9E7003802406000474263
:101F1800324B9B6803F00C03042B5CD0082B01D0D8
:101F28002F4870472DE9F04B2C4B5A6802F03F02BE
:101F38005B6813F4800F2BD0284B5B68C3F38813BE
:101F48001E4600275C010025E41A65EB0705A90178
:101F580041EA9461A001001B61EB0501CB0043EA53
:101F68005073C400A01943EB07014B0243EAD05356
:101F78004402204619460023FEF72AF9174B5B68EE
:101F8800C3F3014301335B00B0FBF3F0BDE8F08B12
:101F9800124B5B68C3F388131E4600275C010025BB
:101FA800E41A65EB0705A90141EA9461A001001B49
:101FB80061EB0501CB0043EA5073C400A01943EB61
:101FC80007018B0243EA90538402204619460023F6
:101FD800FEF7FEF8D2E70348704700BF003802401A
:101FE8000024F40000127A00002800F09E8070B5EA
:101FF8000446504B1B6803F00F038B4209D2CBB247
:102008004C4A1370136803F00F038B4201D0012070
:1020180070BD236813F0020F17D013F0040F04D01B
:10202800454A936843F4E0539360236813F0080F1C
:1020380004D0414A936843F4604393603E4A9368EE
:1020480023F0F003A068034393600D46236813F060
:10205800010F32D06368012B21D09A1E012A25D99D
:10206800354A126812F0020F61D033498A6822F0AB
:10207800030213438B60FEF775FA06462E4B9B68E6
:1020880003F00C036268B3EB820F16D0FEF76AFA0E
:10209800801B41F288339842F0D90320B8E7264ADA
:1020A800126812F4003FE0D10120B1E7224A126819
:1020B80012F0007FD9D10120AAE71E4B1B6803F05C
:1020C8000F03AB4209D9EAB21A4B1A701B6803F026
:1020D8000F03AB4201D001209AE7236813F0040FE5
:1020E80006D0154A936823F4E053E1680B439360E4
:1020F800236813F0080F07D00F4A936823F460434E
:10210800216943EAC1039360FFF702FF0A4B9B680A
:10211800C3F30313094AD35CD840094B1860094B31
:102128001868FEF7D5F9002072E7012070470120F2
:102138006EE700BF003C024000380240D03F000874
:102148002800002004000020014B1868704700BFD9
:102158002800002008B5FFF7F7FF044B9B68C3F37E
:102168008223034AD35CD84008BD00BF0038024030
:10217800E03F000830B583B00446036813F0050F4C
:102188000ED1236813F0020F38D1236813F0080F1B
:1021980000F09B80227D4E4B1A60002003B030BDBA
:1021A8004C4B00221A60FEF7DDF905464A4B1B68C6
:1021B80013F0006F06D0FEF7D5F9401B0228F5D9B9
:1021C8000320EBE76368A26843EA8213E26843EA04
:1021D8000273414AC2F884303E4B01221A60FEF76E
:1021E800C1F905463C4B1B6813F0006FC9D1FEF7D7
:1021F800B9F9401B0228F5D90320CFE70023019342
:10220800354B1A6C42F080521A641B6C03F08053F1
:102218000193019B314A136843F480731360FEF7FE
:10222800A1F905462D4B1B6813F4807F06D1FEF7F4
:1022380099F9401B0228F5D90320AFE7264B1B6FFD
:1022480013F4407312D0226902F440729A420DD0FE
:10225800214B1A6F22F440722149012008600020A6
:1022680008601A671B6F13F0010F12D1236903F47A
:102278004072B2F5407F1DD0174A936823F4F813D3
:10228800936015490B6F2269C2F30B0213430B6766
:102298007BE7FEF767F905460F4B1B6F13F0020F3C
:1022A800E4D1FEF75FF9401B41F288339842F3D935
:1022B800032073E708498A6822F4F81223F0704370
:1022C80023F4407313438B60DBE7002066E700BF0D
:1022D800E011474268004742003802400070004061
:1022E800400E474201282CD1184B9B6813F4000379
:1022F80003D0012B27D116487047144B5B6813F4A1
:10230800800F15D0114BD3F8843003F03F031148E8
:10231800B0FBF3F00D4AD2F88430C3F3881300FB06
:1023280003F0D2F88430C3F30273B0FBF3F07047C4
:10233800064BD3F8843003F03F030748B0FBF3F0B3
:10234800E8E7002070470020704700BF00380240CF
:102358000080BB0000127A000024F40000283BD063
:1023680010B504460023836290F85130002B2ED01C
:10237800022384F851302268136823F04003136065
:102388006368A2681343E2681343226913436269CE
:102398001343A26902F400721343E2691343226AE9
:1023A8001343A16A22680B431360638B03F0040391
:1023B800616A22680B4353602268D36923F400637F
:1023C800D36100206065012384F8513010BD80F886
:1023D800503001F0D5FACBE70120704700230133D4
:1023E8000C4A934211D80269002AF8DA036943F0CB
:1023F8000103036100230133064A934207D80269A7
:1024080012F0010FF7D10020704703207047032016
:10241800704700BF400D030084B010B5044603A800
:1024280080E80E00089B012B1FD1A36B23F4803397
:10243800A363E36823F4840323F04003E360E368C1
:1024480023F44013E3600F9B012B09D02046FFF7CC
:10245800C5FF069B012B1BD0BDE8104004B0704798
:10246800E36843F48013E360F0E7E36843F0400374
:10247800E3602046FFF7B2FF0C9B23B9A36B43F43C
:102488008033A363E5E7A36B23F48033A363E0E71A
:10249800A36843F00603A360A36843F02003A36086
:1024A800DAE7836843F0010383600020704783689C
:1024B80023F0010383600020704708B5C36823F048
:1024C800C043C360012909D069B9C36843F0804398
:1024D800C3603220FEF74CF8002008BDC36843F003
:1024E8000053C360F5E70120F7E70000890141F0D8
:1024F8002001016100230133054A934205D802698E
:1025080012F0200FF7D1002070470320704700BF5A
:10251800400D03001023036100230133054A934251
:1025280005D8026912F0100FF7D100207047032078
:10253800704700BF400D030070B49DF80C4064B9AB
:1025480003339D0807E000EB023303F5805351F88D
:10255800046B1E600134AC42F5D3002070BC704798
:1025680003329208002393420CD210B400F5805431
:10257800246841F8044B01339342F7D308465DF8C9
:10258800044B70470846704742698069104070479D
:10259800406900F00100704710B400F58064D0F87D
:1025A800003423F00303C0F80034D0F8003401F0FD
:1025B80003021343C0F80034012905D0022907D0CB
:1025C80000205DF8044B70474BF680336360F7E7F3
:1025D80041F270736360F3E782B000230193D0F88F
:1025E80040340193019B23F02E030193019B13F4C4
:1025F800805F01D101290CD0019B13F4805F05D0C5
:1026080021B9019B23F48053C0F84034002002B064
:102618007047019B43F48053C0F84034ECE7000056
:1026280084B038B5044605A880E80E002546002386
:10263800C4F8003EA36B43F40013A363A36B23F415
:102648000023A363A36B23F48023A363E36B13F436
:10265800807F10D0079B032B06D0D4F8003423F0DA
:102668000403C4F800340CE0D4F8003443F0040345
:10267800C4F8003405E0D4F8003423F00403C4F8A7
:10268800003410212046FFF731FF2046FFF742FFB4
:10269800002209E005EB42134FF0FF31C3F808159B
:1026A8000021C3F80C150132069B9342F2D8012190
:1026B8002046FFF791FFC820FDF75AFF0023A361CA
:1026C8004FF0FF336361E36B13F4807F17D04FF44F
:1026D8000073636203F18073A3620D4BC4F8003189
:1026E800089B1BB9A36943F01003A361A269094BB6
:1026F8001343A3610020BDE8384004B0704780232D
:10270800636203F5C003A362034BC4F80031E7E733
:102718000003E000080020A3E000400000F580600E
:10272800806880B27047F0B506469DF8184000EB07
:10273800411505F5A0604FF0FF378760032C65D879
:10274800DFE804F00256021840F29D47C76012F015
:10275800800F09D1F76B17F4807F59D0C76847F00D
:102768006007C76000200CE0C76847F48077C7603F
:10277800002006E040F29D67C76012F0800F31D15B
:10278800002006F5806ED6F8187401F00F014FF09E
:10279800010C0CFA01F13943C6F81814B16941F07B
:1027A8000071B16112F0800F34D100269DF8141029
:1027B800022932D000219B0503F0FE53D20202F415
:1027C800F0421343A20402F440221343BDF81C2034
:1027D800C2F30A02134333430B43C5F80035032CF5
:1027E8001ED0F0BDC76847F48077C7600020C8E7EF
:1027F80040F22527C76012F0800F01D10020C0E702
:10280800C76847F4C077C7600020BAE70120B8E777
:102818000020B6E74FF40046C8E74FF40031CAE796
:10282800D5F8003543F00053C5F80035D9E700F571
:102838008060406980B2704710B400EB411101F527
:10284800A064D1F80035C3F381433BB3022B25D0F4
:10285800D1F8003543F08043C1F80035D0F8103482
:1028680013F47F0F49D1D1F8003523F00043C1F8A4
:102878000035D1F8003543F00043C1F80035D1F8F0
:10288800003523F40043C1F8003500230133B3F5C4
:102898007A7F27D82268002AF8DB23E0D1F80035B0
:1028A80043F08043C1F80035C36A13F47F0F1DD18C
:1028B800D1F8003523F00043C1F80035D1F80035D0
:1028C80043F00043C1F80035D1F8003523F4004344
:1028D800C1F8003500230133B3F57A7F02D82268A6
:1028E800002AF8DB00205DF8044B7047D1F800356A
:1028F80043F00043C1F80035F4E7D1F8003543F060
:102908000043C1F80035EDE700EB4111064AC1F874
:102918001025D1F8003523F0804343F00043C1F877
:1029280000350020704700BF0000088070B582B0F5
:102938004C78C36B13F4807F07D00B792BB912B98D
:102948004B79012B11D0012A13D00B69E3B10D8902
:102958002B44013BB3FBF5F39BB2B3F5807F14D94D
:102968002D020D614FF480730FE02146FFF7CCFF75
:1029780075E000EB4413D3F80C5525F06005C3F857
:102988000C5500234B71E0E70123CD781DB10D896B
:1029980005FB03F50D610D69C5F31205374E06EA0F
:1029A800C3432B438D7A6D0705F0C04500EB4414F3
:1029B8002B43C4F8103512B1CB68C4F8143500F5B0
:1029C8008066B36813F0010FD4F8003523F0005384
:1029D800C4F80035D4F800350CBF4FF00055002579
:1029E8002B43C4F80035D4F80055254B1D601D68ED
:1029F80025F080451D60CB78C3B1214D2B6843F489
:102A080000432B601E4B1D6845F000451D601B6888
:102A1800C4F800351ABBCB780BBB0B69FBB1CA797C
:102A2800032A14D8DFE802F0081E081E144D2B688C
:102A380023F400432B60E5E70333C26A92B2C3F381
:102A48008F039A4203D2836943F020038361CC68E1
:102A58004A780B8A002100912146FFF76DFD00207E
:102A680002B070BD0333326992B2C3F38F039A4246
:102A7800EDD2836943F080638361E8E70000F81FC3
:102A8800AC00002070B505460446FFF710FD102184
:102A98002846FFF72BFD2846FFF73CFD00220AE0F9
:102AA80004EB4211D1F8003523F0802343F0804332
:102AB800C1F8003501320F2AF2D90020034600E0A0
:102AC80001300F2813D804EB401606F5A061D6F89C
:102AD800002522F4004242F04042C6F800250133A6
:102AE800B3F57A7FECD80A68002AF8DBE8E74FF0FC
:102AF800FF33C5F814346B612846FFF7D2FC002079
:102B080070BD0020704708B521220274202242744B
:102B18000022428282820722C28200F0A3FB08BD03
:102B280008B5A122027421224274002242828282C4
:102B38000722C28200F096FB08BD38B50446D0F8DB
:102B48007833D9694031FFF7EBFF054620B9D4F84F
:102B5800C833022120469847284638BD38B505466F
:102B6800D0F87833DC69217879B9217BB1B9617BF8
:102B7800F1B9D5F87833D86928B101F047F9D5F813
:102B880078330022DA61002038BD00F023FC217878
:102B9800284600F035FC00232370E6E7284600F0BD
:102BA80019FC217B284600F02BFC00232373DEE769
:102BB800284600F00FFC617B284600F021FC00232A
:102BC8006373D6E770B584B0044601230222114628
:102BD80000F0EAF9FF2800F0A180064601462046E9
:102BE80000F0D8F9D4F87853502001F007F9E861DB
:102BF800D4F87833DD691A2303FB064393F84A3384
:102C080013F0800F72D16978204600F0E8FB014686
:102C1800287094F81C336A78688902900320019020
:102C280094F81D030090204600F0C4FB0022297888
:102C3800204601F021F800231A460A21204600F018
:102C4800B3F9FF286CD01A2303FB004393F84A33E7
:102C580013F0800F52D1AB731A2303FB0043B3F870
:102C68004C332B831A2303FB004393F8523313F09E
:102C7800800F4BD1AB731A2303FB0040B0F85433D9
:102C88002B83A97B204600F0AAFB6873E97B2046CA
:102C980000F0A5FB287394F81C33AA7B697B288B6A
:102CA80002900226019694F81D030090204600F039
:102CB80081FB94F81C33EA7B297B688B0290019690
:102CC80094F81D030090204600F074FB002685F858
:102CD8004C603246697B204600F0CEFF3246297BA5
:102CE800204600F0C9FF304604B070BD6B701A234F
:102CF80003FB0646B6F84C336B8184E7EB731A2363
:102D080003FB0043B3F84C336B83ABE7EB731A2335
:102D180003FB0040B0F854336B83B2E70220E3E7CB
:102D28000220E1E7704730B583B00546D0F8783324
:102D3800DC6994F84D30012B03D0022B19D003B075
:102D480030BD606A228B90420AD9637BE169012019
:102D58000090284600F0F6FA022384F84D30EEE79A
:102D6800637BE1690122009282B2284600F0EAFA08
:102D7800F2E7617B00F06CFF012805D00228DED164
:102D8800012384F84D30DAE7636A228B93420AD92B
:102D98009B1A6362E3691A44E261636A33B10123EF
:102DA80084F84D30CBE700236362F6E7002384F80C
:102DB8004D302846FFF7B6FFC1E7704738B50546DE
:102DC800D0F87833DC6994F84E30032B02D0042B0A
:102DD80009D038BD237B628B216A00F0C9FA04232D
:102DE80084F84E30F5E7217B00F032FF0128F0D15E
:102DF800217B284600F026FFA36A834202D0628B1B
:102E0800824206D3002384F84E302846FFF7D5FFC8
:102E1800DFE71B1AA362236A18442062032384F89D
:102E28004E30D6E7704738B50546D0F87833DC69B8
:102E380094F84C30042B04D8DFE803F04C05163C1A
:102E48004300012347E0A16CFFF75DFE034630B164
:102E5800012840D0042384F84C3001233BE00223AE
:102E680084F84C30012336E004F14001FFF758FEA6
:102E78000346C0B9002384F84C30636C23F07F42CA
:102E8800A16C4B6823F07F439A4201D0012322E0D2
:102E9800226C0B689A4201D001231CE02846FFF7F8
:102EA800C1FF012317E0012815D0042384F84C3012
:102EB800012310E0FFF737FF2846FFF77FFF0123C4
:102EC80009E0002100F0F5F938B9002384F84C3006
:102ED800012300E00023184638BD0123FBE7002347
:102EE80005E003F1E002002140F8221001330E2B27
:102EF800F7D9002304E0C218002182F81C1101331D
:102F0800B3F5007FF7D3002303704370012282706A
:102F1800C0F8BC33027640218171437680F81C33B7
:102F280080F81D231846704708B50378DBB20B2BD1
:102F380000D008BDD0F87833002BFAD09B699847A9
:102F4800F7E798B138B504460D4680F8C02300234A
:102F5800C0F87833C0F87C33FFF7C1FF0DB1C4F86F
:102F6800C853204600F044FE002038BD02207047B8
:102F78000A4659B1D0F87C3353B9591CC0F87C13B0
:102F8800DC3300EB8300426000207047022070476A
:102F98000220704790F838338B4203D980F8201309
:102FA800002070470220704770B4064600200AE0EF
:102FB8001A2404FB056595F845439C421AD0FF2B5B
:102FC80018D0441CE0B2012813D805461A2404FB83
:102FD800006494F843438C4201D0FF29F1D11A24AC
:102FE80004FB056494F844439442E1D0FF2AE8D1F5
:102FF800DEE7FF2070BC704710B5044600F05EFEA7
:103008000121204600F02AFE002010BDC0F8BC13A4
:10301800704708B5D0F8BC330133C0F8BC33FFF7AC
:1030280083FF08BD012380F81F337047002380F811
:103038001F33704708B503784BB9012380F81E3356
:10304800D0F8C8330BB104219847002008BD90F888
:103058001F33012BF9D102230370F6E710B504469C
:1030680000F034FE2179204600F0CAF96179204643
:1030780000F0C6F9002384F81E33D4F8C83313B11E
:10308800052120469847204600F018FE03232370A8
:10309800002010BD30B583B00446037E013B0A2BE7
:1030A80000F2DA80DFE803F0061037435664808CBC
:1030B8009FADC400427900F1100100F00CF9022321
:1030C8002376012003B030BD417900F0C1FD01280D
:1030D80005D004281BD0022819D00120F2E7237C50
:1030E800E28A4AB113F0800F03D105232376012029
:1030F800E8E703232376E5E713F0800F03D10723DE
:1031080023760120DEE7092323760120DAE70B2363
:1031180023760120D6E7D0F8BC33C38103798289AE
:10312800816800F0FFF8042323760120CAE70179BB
:1031380000F08EFD012806D0052800F08F800428B5
:1031480004D00120BEE709232376F5E70B23237675
:103158000120B7E74379828901250095816800F04D
:10316800CBF8D4F8BC33E381062323762846A9E7B5
:10317800417900F06DFD012807D0052808D0022804
:103188000AD004280CD001209CE70723237699E76E
:103198000C232376032095E705232376012091E766
:1031A8000B23237602208DE703790022114600F0D5
:1031B800B9F8D4F8BC33E38108232376012081E7EA
:1031C800017900F045FD012805D0042807D005281D
:1031D80046D0012076E70D232376002072E70B23E3
:1031E800237601206EE743790125009500221146D8
:1031F80000F082F8D4F8BC33E3810A23237628460A
:1032080060E7417900F024FD012805D0022807D0A5
:10321800042809D0012055E70D232376002051E723
:103228000923237601204DE70B232376012049E764
:10323800437E0133DBB24376022B07D9D0F8C8337B
:10324800062198470023637602203BE700F03EFD05
:1032580001202076A07035E7012033E7032031E70D
:1032680003202FE78378012B03D0022B09D00123F9
:1032780005E081608281012303760222827018466C
:10328800704710B50446FFF705FF034630B1032821
:103298000AD0022806D10122A27003E00122A270FE
:1032A80000222276184610BD0122A2700022227642
:1032B800F8E708B58378012B04D000221146FFF700
:1032C800D1FF08BD02230374012343740023438202
:1032D8008182C382F1E730B585B015460024039496
:1032E800082302930191009423462246294600F0C0
:1032F80010FD204605B030BD30B585B00C461946E6
:103308009DF8203090F81D5305B1002303930292D5
:1033180001940123009300231A4600F0FAFC0020D0
:1033280005B030BD30B585B01D4600240394029227
:103338000191012200922346294600F0EAFC20462A
:1033480005B030BD30B585B00C4619469DF8203023
:1033580090F81D5305B100230393029201940123B1
:1033680000930223002200F0D4FC002005B030BDF9
:1033780030B585B01D4600240394029201910122C4
:1033880000920223294600F0C4FC204605B030BD57
:1033980000230A2B0BD803F1E00250F8222012F484
:1033A800004F02D00133DBB2F3E798B270474FF613
:1033B800FF70704710B584B0BDF8204002949DF8A6
:1033C8001C4001949DF81840009400F087FC0020F0
:1033D80004B010BD08B500F094FC002008BD38B555
:1033E80005460C46FFF7D4FF4FF6FF73984205D009
:1033F80044F4004400F1E00345F82340C0B238BD6E
:103408000A2906D8E03150F82130C3F30E0340F8FA
:1034180021300020704700002DE9F0438DB00024D2
:103428000794089409940A940B940194484B1A6BD6
:1034380042F010021A631A6B02F010020192019A0C
:1034480002941A6B42F004021A631A6B02F0040227
:103458000292029A03941A6B42F080021A631A6B62
:1034680002F080020392039A04941A6B42F001025C
:103478001A631A6B02F001020492049A05941A6BFB
:1034880042F002021A631A6B02F002020592059AD0
:1034980006941A6B42F008021A631B6B03F00803C8
:1034A8000693069B2B4E224608213046FDF7B0F9BD
:1034B800DFF8AC90012211464846FDF7A9F9264FDE
:1034C80022464FF210113846FDF7A2F9042307935C
:1034D8000894099407A93046FDF7C8F8082307930C
:1034E8000125089509940A9407A93046FDF7BEF806
:1034F80032230793DFF86C80CDF82080099407A960
:103508003046FDF7B3F80795089509940A9407A97A
:103518004846FDF7ABF80795CDF82080099407A930
:103528000E48FDF7A3F84FF2101307930895099476
:103538000A9407A93846FDF799F8202307930894B9
:10354800099407A93846FDF791F80DB0BDE8F08356
:103558000038024000100240000C02400000024007
:10356800000802400000121008B50B480B4B03601E
:103578000B4B436000238360C3604FF480420261B9
:1035880043618361C3610362FDF7FAFE00B908BDB8
:1035980000F0D4F9FBE700BFC80000200054004049
:1035A800A086010030B589B00023039304930593E6
:1035B800069307930268144B9A4201D009B030BDB4
:1035C80000250195114C236B43F002032363236B01
:1035D80003F002030193019B4FF41073039312232A
:1035E8000493012305930423079303A90848FDF7CF
:1035F8003DF80295236C43F400132364236C03F411
:1036080000130293029BD9E700540040003802409F
:103618000004024008B50B480B4B03604FF40073DD
:10362800436000238360C3600361084A4261836189
:10363800C36101230362FDF77DFF00B908BD00F0F7
:103648007DF9FBE71C0100200038004000770100ED
:1036580008B50B480B4B03604FF40072426000231F
:103668008360C3600261084A42618361C361036287
:10367800FDF760FF00B908BD00F060F9FBE700BF87
:1036880064010020003C004000770100F0B58DB0D7
:1036980000230793089309930A930B930368404AFE
:1036A800934204D03F4A934243D00DB0F0BD00246A
:1036B80001943D4B1A6C42F480421A641A6C02F46D
:1036C80080420192019A02941A6B42F004021A6332
:1036D8001A6B02F004020292029A03941A6B42F0E7
:1036E80002021A631B6B03F002030393039B042378
:1036F80007930225089506230B932C4F07A93846F4
:10370800FCF7B4FF08230793089509940A94052643
:103718000B9607A93846FCF7A9FF4FF4A053079367
:10372800089509940A940B9607A92148FCF79EFF6F
:10373800BBE7002404941C4B1A6C42F400421A6440
:103748001A6C02F400420492049A05941A6B42F02F
:1037580001021A631A6B02F001020592059A069497
:103768001A6B42F004021A631B6B03F004030693FE
:10377800069B102307930226089606250B9507A992
:103788000C48FCF773FF4FF4A45307930896099469
:103798000A940B9507A90548FCF768FF85E700BF61
:1037A80000380040003C0040003802400008024059
:1037B800000402400000024070B59AB03022002197
:1037C8000EA800F02BFB002409940A940B940C9487
:1037D8000D94039404940594069407940894019412
:1037E8001F4B1A6C42F080521A641B6C03F0805312
:1037F8000193019B02941B4B1A6842F440421A60E1
:103808001B6803F440430293029B01260E964FF473
:10381800A0230F93022514954FF4800315930423D6
:103828001693C02217921893082319930EA8FEF72F
:1038380079F90F2309930A950B944FF4A0530C932D
:103848000D94032109A8FEF7CFFB0396C82305931F
:1038580005230493069503A8FEF78CFC1AB070BDE7
:10386800003802400070004070B5FCF755FEFFF7C5
:10387800A3FFFFF7D1FDFFF777FEFFF7CBFEFFF7BA
:10388800E7FE00F05DF800F025F951E0294A4FF411
:10389800807191610D2108460138FDD84FF0807183
:1038A8009161172210460138FDD8013B002BEDDA53
:1038B800072117E0FF230B4103F001031D4D4FF4CF
:1038C8008072AA611C4A52F8236030460138FDD83C
:1038D8004FF08070A86102EB83039B68184601389B
:1038E800FDD801390029E5DA072117E0FF230B414C
:1038F80003F001030F4D4FF48072AA610E4A52F88B
:10390800236030460138FDD84FF08070A86102EB83
:1039180083039B6818460138FDD801390029E5DA88
:103928000134042C01DC0723C0E76420FCF720FEE7
:103938000024F6E7000C0240C03F00087047000072
:1039480008B50D480D4B03604FF4827343600023A4
:103958008360C360036143614FF400728261C36195
:103968000362436283620A23C362FEF7F7FC00B96D
:1039780008BDFFF7E3FFFBE7AC0100200030014082
:1039880000B589B000230393049305930693079326
:103998000268154B9A4202D009B05DF804FB002179
:1039A800019103F584335A6C42F480525A645A6C7C
:1039B80002F480520192019A02911A6B42F00102BC
:1039C8001A631B6B03F001030293029BE02303932A
:1039D80002230493032306930523079303A90348AB
:1039E800FCF744FED8E700BF003001400000024069
:1039F80082B0002100910B4B5A6C42F480425A6409
:103A08005A6C02F480420092009A01911A6C42F0BA
:103A180080521A641B6C03F080530193019B02B01F
:103A2800704700BF003802407047FEE7FEE7FEE738
:103A3800FEE770477047704708B5FCF787FD08BD7B
:103A480008B50248FDF7BDFB08BD00BFD005002042
:103A580008B503460B4A126842B10A4A1068034483
:103A68006A46934206D8074A136008BD054A0649C4
:103A78001160F2E700F098F90C2303604FF0FF3073
:103A8800F3E700BFB000002098080020054BD3F8EA
:103A9800882042F47002C3F888204FF000629A60D0
:103AA800704700BF00ED00E004290CD0052902D0C2
:103AB800022904D07047064B03221A707047044B42
:103AC80002221A707047024B01221A70F2E700BFF7
:103AD800B800002008B501220B490C48FFF731FA5D
:103AE80048B90B490948FFF743FA38B90748FFF7BF
:103AF80083FA30B908BDFFF721FFF2E7FFF71EFF91
:103B0800F4E7FFF71BFFF5E7B13A000804020020CD
:103B180008000020F0B589B00023039304930593AF
:103B2800069307930368B3F1A04F01D009B0F0BD25
:103B3800002501951C4C236B43F001032363236B81
:103B480003F001030193019B08AE4FF4007346F89C
:103B5800143D164F31463846FCF788FD4FF4E053C4
:103B68000393022304930595032306930A230793DB
:103B780031463846FCF77AFD636B43F08003636394
:103B88000295636C43F480436364636C03F480437D
:103B98000293029B2A4629464320FCF70FFD432047
:103BA800FCF740FDC2E700BF0038024000000240B9
:103BB80008B5D0F8C002FFF72CFA08BD08B5D0F850
:103BC800C002FFF737FA08BD08B5D0F8C002FFF702
:103BD80045FA08BD704708B5D0F8C002FFF722FAC9
:103BE80008BD08B5D0F8C002FFF720FA08BD0000EC
:103BF80090F8C033012B01D00020704710B504465F
:103C08000F48C0F8C042C4F8C4034FF0A043036093
:103C1800082383600123C3600023036102228261B9
:103C2800C361FCF79BFE40B90548FDF7A3FB0146BD
:103C38002046FFF7EBF9002010BDFFF77FFEF3E702
:103C4800D005002008B5D0F8C403FDF78DFB08BDEA
:103C580008B5D0F8C403FDF780FB08BD08B590F897
:103C6800C033012B04D0C820FCF782FC002008BD1B
:103C7800084600F063F8F6E710B4D0F8C43301EB57
:103C88008104E0000446184490F83B0048B901EB71
:103C98008101C800034483F8512000205DF8044BDB
:103CA8007047234483F85020F7E718B1022803D05F
:103CB80002207047002070470120704708B5D0F8EF
:103CC800C403FDF722FBFFF7F0FF08BD08B5D0F8E5
:103CD800C403FDF730FBFFF7E8FF08BD10B584B05B
:103CE800D0F8C403BDF8204002949DF81C4001940C
:103CF8009DF818400094FCF7CFFDFFF7D6FF04B0FD
:103D080010BD08B5D0F8C403FCF716FEFFF7CDFFC9
:103D180008BD10B584B0D0F8C4039DF824400394BE
:103D2800BDF820400294079C01949DF81840009427
:103D3800FCF75EFEFFF7B9FF04B010BD08B528B167
:103D4800002201210248FCF763FD08BD0122F8E7C3
:103D580000080240DFF834D0002103E00C4B5B5828
:103D6800435004310B480C4B42189A42F6D30B4A85
:103D780002E0002342F8043B094B9A42F9D3FFF7CB
:103D880085FE00F017F8FFF76FFD7047000002206E
:103D9800FC3F000800000020900000209000002058
:103DA80098080020FEE70000014B1868704700BF24
:103DB8002C00002070B50D4E0D4CA41BA41000253E
:103DC800A54209D10B4E0C4C00F0EAF8A41BA41034
:103DD8000025A54205D170BD56F825309847013514
:103DE800EEE756F8253098470135F2E7F43F00082A
:103DF800F43F0008F43F0008F83F0008024B014672
:103E0800186800F061B800BF2C000020024B014682
:103E1800186800F00BB800BF2C00002002440346CD
:103E2800934200D1704703F8011BF9E738B50546FE
:103E3800002945D051F8043C0C1F002BB8BFE418EA
:103E480000F0ACF81F4A1368104633B96360146079
:103E58002846BDE8384000F0A2B8A3420CD9216832
:103E68006218934204BF1A685B68636004BF521803
:103E780022600460ECE713465A680AB1A242FAD9F4
:103E880019685818A0420BD120680144581882427A
:103E98001960DDD1106852685A6001441960D7E78B
:103EA80002D90C232B60D3E7206821188A4204BF6B
:103EB80011685268626004BF091821605C60C7E736
:103EC80038BD00BFBC00002070B5CD1C25F003052F
:103ED80008350C2D38BF0C25002D064601DBA942FC
:103EE80003D90C233360002070BD00F057F8214A35
:103EF8001468214691B9204C23681BB9304600F05C
:103F08003DF820602946304600F038F8431C24D19B
:103F18000C233360304600F042F8E4E70B685B1B83
:103F280018D40B2B0FD90B60CD50CC18304600F0AD
:103F380036F804F10B00231D20F00700C31AD3D074
:103F48005A42E250D0E78C424B6816BF6360136058
:103F58000C46EBE70C464968CCE7C41C24F0030484
:103F6800A04205D0211A304600F008F80130CFD021
:103F78002560DBE7BC000020C000002038B5064CF7
:103F88000023054608462360FFF762FD431C02D163
:103F9800236803B12B6038BD940800207047704730
:103FA800F8B500BFF8BC08BC9E467047F8B500BF1E
:083FB800F8BC08BC9E467047EE
:103FC0000D00000017000000170000000C000000AA
:103FD00000000000000000000102030406070809B9
:0C3FE00000000000010203044344430001
:083FEC001CC2FF7F0100000070
:043FF400BD01000803
:043FF8009901000823
:103FFC000100000010000000E83F00080200000073
:10400C00CD2B0008652B0008432B00082F2E000831
:10401C000B2B0008000000000024F40030000020EE
:10402C000000000000000000000000000000000084
:10403C000000000000000000000000000000000074
:10404C000000000000000000000000000000000064
:10405C000000000000000000000000000000000054
:10406C000000000000000000000000000000000044
:10407C000000000000000000000000000000000034
:0400000508003D5D55
:00000001FF
